{
  "abi": [
    {
      "inputs": [],
      "name": "Q112",
      "outputs": [
        {
          "internalType": "uint256",
          "name": "",
          "type": "uint256"
        }
      ],
      "stateMutability": "view",
      "type": "function"
    },
    {
      "inputs": [],
      "name": "RESOLUTION",
      "outputs": [
        {
          "internalType": "uint8",
          "name": "",
          "type": "uint8"
        }
      ],
      "stateMutability": "view",
      "type": "function"
    }
  ],
  "bytecode": {
    "object": "0x60b9610025600b82828239805160001a60731461001857fe5b30600052607381538281f3fe7300000000000000000000000000000000000000003014608060405260043610603d5760003560e01c80633bf7a83e146042578063552f888a14605a575b600080fd5b60486076565b60408051918252519081900360200190f35b6060607e565b6040805160ff9092168252519081900360200190f35b600160701b81565b60708156fea264697066735822122052105cdeba7fc3b7e23bc1105af42a11a6987ae234dc4ca2387352cfec00dd4b64736f6c63430006060033",
    "linkReferences": {}
  },
  "methodIdentifiers": {
    "Q112()": "3bf7a83e",
    "RESOLUTION()": "552f888a"
  },
  "id": 2
}